:020000040000fa
:080000000002040000000000f2
:020000040000fa
:04000800b40400003c
:020000040000fa
:04000c00b404000038
:020000040000fa
:04001000b404000034
:020000040000fa
:04001400b404000030
:020000040000fa
:04001800b40400002c
:020000040000fa
:04001c00b404000028
:020000040000fa
:04002000b404000024
:020000040000fa
:04002400b404000020
:020000040000fa
:04002800b40400001c
:020000040000fa
:04002c006a03000063
:020000040000fa
:04003000b404000014
:020000040000fa
:040034005e04000066
:020000040000fa
:04003800b40400000c
:020000040000fa
:04003c00e2030000db
:020000040000fa
:04004000b404000004
:020000040000fa
:04004400c8020000ee
:020000040000fa
:04004800b4040000fc
:020000040000fa
:04004c00b4040000f8
:020000040000fa
:04005000b4040000f4
:020000040000fa
:040054002203000083
:020000040000fa
:04005800b4040000ec
:020000040000fa
:04005c007e0400001e
:020000040000fa
:04006000b4040000e4
:020000040000fa
:04006400b4040000e0
:020000040000fa
:04006800b4040000dc
:020000040000fa
:04006c00b4040000d8
:020000040000fa
:04007000b4040000d4
:020000040000fa
:04007400b4040000d0
:020000040000fa
:04007800b4040000cc
:020000040000fa
:04007c00b4040000c8
:020000040000fa
:04008000b4040000c4
:020000040000fa
:04008400b4040000c0
:020000040000fa
:04008800b4040000bc
:020000040000fa
:04008c00b4040000b8
:020000040000fa
:04009000b4040000b4
:020000040000fa
:04009400b4040000b0
:020000040000fa
:04009800b4040000ac
:020000040000fa
:04009c00b4040000a8
:020000040000fa
:0400a000b4040000a4
:020000040000fa
:0400a400b4040000a0
:020000040000fa
:0400a800b40400009c
:020000040000fa
:0400ac00b404000098
:020000040000fa
:0400b000b404000094
:020000040000fa
:0400b400b404000090
:020000040000fa
:0400b800b40400008c
:020000040000fa
:0400bc00b404000088
:020000040000fa
:0400c000b404000084
:020000040000fa
:0400c400b404000080
:020000040000fa
:0400c800b40400007c
:020000040000fa
:0400cc00b404000078
:020000040000fa
:0400d000b404000074
:020000040000fa
:0400d400b404000070
:020000040000fa
:0400d800b40400006c
:020000040000fa
:0400dc00b404000068
:020000040000fa
:0400e000b404000064
:020000040000fa
:0400e400b404000060
:020000040000fa
:0400e800b40400005c
:020000040000fa
:0400ec00b404000058
:020000040000fa
:0400f000b404000054
:020000040000fa
:0400f400b404000050
:020000040000fa
:0400f800b40400004c
:020000040000fa
:0400fc00b404000048
:020000040000fa
:04010000b404000043
:020000040000fa
:04010400b40400003f
:020000040000fa
:04010800b40400003b
:020000040000fa
:04010c00b404000037
:020000040000fa
:04011000b404000033
:020000040000fa
:04011400b40400002f
:020000040000fa
:04011800b40400002b
:020000040000fa
:04011c00b404000027
:020000040000fa
:04012000b404000023
:020000040000fa
:04012400b40400001f
:020000040000fa
:04012800b40400001b
:020000040000fa
:04012c00b404000017
:020000040000fa
:04013000b404000013
:020000040000fa
:04013400b40400000f
:020000040000fa
:04013800b40400000b
:020000040000fa
:04013c00b404000007
:020000040000fa
:04014000b404000003
:020000040000fa
:04014400b4040000ff
:020000040000fa
:04014800b4040000fb
:020000040000fa
:04014c00b4040000f7
:020000040000fa
:04015000b4040000f3
:020000040000fa
:04020800b40400003a
:020000040000fa
:04020c00b404000036
:020000040000fa
:04021000b404000032
:020000040000fa
:04021400b40400002e
:020000040000fa
:04021800b40400002a
:020000040000fa
:04021c00b404000026
:020000040000fa
:04022000b404000022
:020000040000fa
:04022400b40400001e
:020000040000fa
:04022800b40400001a
:020000040000fa
:04022c006a03000061
:020000040000fa
:04023000b404000012
:020000040000fa
:040234005e04000064
:020000040000fa
:04023800b40400000a
:020000040000fa
:04023c00e2030000d9
:020000040000fa
:04024000b404000002
:020000040000fa
:04024400c8020000ec
:020000040000fa
:04024800b4040000fa
:020000040000fa
:04024c00b4040000f6
:020000040000fa
:04025000b4040000f2
:020000040000fa
:040254002203000081
:020000040000fa
:04025800b4040000ea
:020000040000fa
:04025c007e0400001c
:020000040000fa
:04026000b4040000e2
:020000040000fa
:04026400b4040000de
:020000040000fa
:04026800b4040000da
:020000040000fa
:04026c00b4040000d6
:020000040000fa
:04027000b4040000d2
:020000040000fa
:04027400b4040000ce
:020000040000fa
:04027800b4040000ca
:020000040000fa
:04027c00b4040000c6
:020000040000fa
:04028000b4040000c2
:020000040000fa
:04028400b4040000be
:020000040000fa
:04028800b4040000ba
:020000040000fa
:04028c00b4040000b6
:020000040000fa
:04029000b4040000b2
:020000040000fa
:04029400b4040000ae
:020000040000fa
:04029800b4040000aa
:020000040000fa
:04029c00b4040000a6
:020000040000fa
:0402a000b4040000a2
:020000040000fa
:0402a400b40400009e
:020000040000fa
:0402a800b40400009a
:020000040000fa
:0402ac00b404000096
:020000040000fa
:0402b000b404000092
:020000040000fa
:0402b400b40400008e
:020000040000fa
:0402b800b40400008a
:020000040000fa
:0402bc00b404000086
:020000040000fa
:0402c000b404000082
:020000040000fa
:0402c400b40400007e
:020000040000fa
:0402c800b40400007a
:020000040000fa
:0402cc00b404000076
:020000040000fa
:0402d000b404000072
:020000040000fa
:0402d400b40400006e
:020000040000fa
:0402d800b40400006a
:020000040000fa
:0402dc00b404000066
:020000040000fa
:0402e000b404000062
:020000040000fa
:0402e400b40400005e
:020000040000fa
:0402e800b40400005a
:020000040000fa
:0402ec00b404000056
:020000040000fa
:0402f000b404000052
:020000040000fa
:0402f400b40400004e
:020000040000fa
:0402f800b40400004a
:020000040000fa
:0402fc00b404000046
:020000040000fa
:04030000b404000041
:020000040000fa
:04030400b40400003d
:020000040000fa
:04030800b404000039
:020000040000fa
:04030c00b404000035
:020000040000fa
:04031000b404000031
:020000040000fa
:04031400b40400002d
:020000040000fa
:04031800b404000029
:020000040000fa
:04031c00b404000025
:020000040000fa
:04032000b404000021
:020000040000fa
:04032400b40400001d
:020000040000fa
:04032800b404000019
:020000040000fa
:04032c00b404000015
:020000040000fa
:04033000b404000011
:020000040000fa
:04033400b40400000d
:020000040000fa
:04033800b404000009
:020000040000fa
:04033c00b404000005
:020000040000fa
:04034000b404000001
:020000040000fa
:04034400b4040000fd
:020000040000fa
:04034800b4040000f9
:020000040000fa
:04034c00b4040000f5
:020000040000fa
:04035000b4040000f1
:020000040000fa
:10040000afbd20000eff20000e018800000000009c
:10041000000020000000e000020032000001200087
:100420002002880014000700510107000000e000ce
:1004300003003a004041250001002000020037007f
:100440000000200001002000810f70000100320038
:1004500014000700000020000000e000020032004d
:10046000000002000000000012370200000000003f
:100470000040da000000fe004440a900a050200027
:100480000000e0000300320000002000a00188000e
:100490004440a800000006008a1f78008b1f7800e7
:1004a0000000060091018800800478000000eb0045
:1004b0001a003700e284440032a0b4009905ba0063
:1004c000e284440032a0b4009906ba00e2844400f9
:1004d00032a0b4000006eb00476fde00fd07b2005b
:1004e000636ce10003003a00ebff07000000eb0043
:1004f0000a003700606ce10004003a00005deb0088
:100500008b05e900fdff3e00040037006168e10053
:10051000010032000086eb000b00070019c7ba008b
:100520001905ba000e04e00003003a000a00e000da
:10053000e0ff3a0000000600fe07b2009e018800be
:100540008a047800f5ff3700395dba008b05e900b1
:100550000c003200295dba008b05e900080032006a
:100560000c00e00003003a00e284440032a0b40032
:10057000f5ff370019ddba008b05e900faff3a00f4
:100580008904e800e184440032a0b40000000600c1
:100590003600f800809fbe00829fbe00849fbe0090
:1005a000869fbe000000fa0084e0a9005b150700ea
:1005b000e5cabf000040e800e5eab700e5cabf00b1
:1005c000e24f500018003a00e56aef0050528000f8
:1005d0006152800061004000e08048005052880075
:1005e0006152880052cabf000004e0000b003200d4
:1005f000525280006352800070528000815280000d
:100600000000510081805900e00f5000e08f580039
:1006100002003500cce2a800526aef005052800080
:1006200061528000a00b07000080fa004f03be005b
:100630004f02be004f01be004f00be003600f90061
:1006400000400600809fbe00821f78000200fa0072
:100650008560a9001200370030118000004f78003b
:10066000d3cabf000040e8000074a1001047980002
:10067000d4cabf009e40900080cf500008003200d6
:10068000d3cabf008080fb0030a52000008040005e
:100690001e4878001e41900031ad2000824878004d
:1006a00010118000610060000000e000eaff3a00e5
:1006b00010118000620060000000e00001003200c4
:1006c0002222a9000080fa004f0178004f00be00ee
:1006d000004006003600f800809fbe00829fbe00ea
:1006e000849fbe00869fbe000400fa000040eb001d
:1006f000004f78008420a900100a8000700060007c
:100700000000e0000f00320010c0b3007cebb70027
:100710000d003700000a800010079800c0b62000c6
:100720001000be0061004000e0804800c2b620001a
:100730000089be00c05b80000000e800c05b88004c
:100740000100370000000000100a8000680060000f
:100750000000e0000800320010c0b3009e407800a6
:10076000e7cf5000010036000040eb001e4fe800cc
:100770000004e000e7ff3a001e009000c15b80002b
:1007800000022000808f500003003e007ccbbf00a1
:100790000004e0000400320010c0b3007cebb7009e
:1007a00030c0b300f61207000080fa004f03be000d
:1007b0004f02be004f01be004f00be003600f900e0
:1007c000004006003600f800809fbe00829fbe00f9
:1007d000849fbe00869fbe000400fa000040eb002c
:1007e000004f780084a0a900300a800070006000eb
:1007f0000000e0001100320010c0b3007debb70034
:100800000f003700200a800010079800c0b62000b3
:10081000b00090002000900061004000e08048009f
:10082000c2b620002001980031019800d05b800002
:100830000000e800d05b88000100370000000000e5
:10084000300a8000680060000000e000080032000c
:1008500010c0b3009e407800e7cf50000100360082
:100860000040eb001e4fe8000004e000e5ff3a0006
:100870001e009000d15b800000022000808f50009d
:1008800003003e007dcbbf000004e0000400320006
:1008900010c0b3007debb70040c0b300b812070032
:1008a0000080fa004f03be004f02be004f01be00a1
:1008b0004f00be003600f90000400600809fbe00d9
:1008c000829fbe000000fa008460a900a25b800045
:1008d000b35b8000000020001100200002004000f7
:1008e00083804800a05b8800b15b88000080fa002c
:1008f0004f01be004f00be00004006003600f80069
:10090000809fbe00829fbe00849fbe00869fbe0067
:100910000400fa0001188000010f7800e1b7200000
:10092000914078002147980085a0a90000c0eb0005
:100930007eebb7002e409000e14f500003003e00d8
:100940009e0078002e409000790b07000080fa008e
:100950004f03be004f02be004f01be004f00be005d
:100960003600f900004006000040da000000fe00fa
:10097000000005006022b800060220000000d00040
:100980008180d2000482d2008582d2000000a000c3
:100990000202520083825a00030031000202420028
:1009a00083824a000000a1000603e900f3ff3a0039
:1009b00000000600889fbe008a9fbe0030044200ef
:1009c000b0844a0030054b0090854b006000b100b8
:1009d0000898be000a90be000440e10005c8e1008e
:1009e00006d0e10007d8e1000200310068004000b5
:1009f0001008e8004f05be004f04be0000000600ce
:100a0000889fbe008a9fbe003004be002005be0045
:100a10000418540005985c0006185d0007985d00f6
:100a2000110020000440e10005c8e10006d0e1000b
:100a300007d8e100010039008000eb0010881000a9
:100a40004f05be004f04be00000006001200fa0071
:100a5000889fbe008a9fbe008c9fbe00e0b79f00ab
:100a6000f1b79f0082bf9f0093bf9f000605be00a5
:100a70000404be000000eb00d0b79f00c0b79f0089
:100a8000b0b79f00a0b79f0090b79f000006780006
:100a90005fb19700cfb09700820141003fb097004f
:100aa0000200e00004003d00370007007e80570090
:100ab000c0ff070003003700330007007e805700a7
:100ac000cfff0700dfb697000d00e0000c003500f7
:100ad0006fb29700ffb297000fbb97009fbb9700c4
:100ae00010002000010020006011b8000002720018
:100af0008182720002037300838373001b0007006e
:100b00000c06e80001042000810f5600e0ff3a00c7
:100b10000d00e00004003d000802be000a03be0014
:100b20007e805700a3ff07005fa897000000e00049
:100b300005003a001fb29700afb297003fb397008d
:100b4000cfb39700090007006fb09700ffb0970080
:100b50000fb997009fb997004f06be004f05be0022
:100b60004f04be000080fa000000060001000700ec
:100b700000000600a4b79f00b5b79f00c6b79f004e
:100b8000d7b79f00000006004f09de008281710088
:100b9000b3b79f004f01de0081804000828070006b
:100ba000a1b79f008fb097004f09de000000400002
:100bb0000200700090b79f007fa897004f01de00f1
:100bc000818040008280700081b79f000d00070087
:100bd0004f3ade000000400004007000f0af9f00bc
:100be000080007000402420085824a0006034b0009
:100bf00087834b00dfff07000802be000a03be0028
:100c0000000006002fb29700bfb297004fb39700c5
:100c1000dfb3970000000600881f7800180020004e
:100c2000881f780089ff07008f87e9004f0478004c
:100c300000000600801feb0084ff07008f87e9009b
:100c400000000600889fbe008a9fbe00e00f500093
:100c5000e08f5800e00f5900e08f59000c003d0074
:100c60006044b8006055b8000000540081805c000a
:100c700002015d0083815d0018002000150007005f
:100c800008003d00180007000004eb0005003700d5
:100c90000004eb000f00070002003d0012000700f7
:100ca00018002000dcff07000800e000060032000a
:100cb0006022b8006033b8000000520081805a0002
:100cc00002015b0083815b004f05be004f04be0044
:100cd00000000600e00f5200e08f5a00e00f5b00ba
:100ce000e08f5b00000006006044b8006055b8006b
:100cf0000402540085825c0006035d0087835d006a
:100d000000000600889fbe008a9fbe008c1f7800ee
:100d1000e00f5000e08f5800e00f5900e08f5900bd
:100d20000d003d006044b8006055b800000054005c
:100d300081805c0002015d0083815d001c00200059
:100d40000820e10009a8e1000ab0e1000bb8e100c9
:100d50000d003d00080037000006eb00e00f5200d8
:100d6000e08f5a00e00f5b00e08f5b0006003d0063
:100d70006044b8006055b8000402540085825c00ed
:100d800006035d0087835d00aaff07000c00e000fa
:100d9000060032006022b8006033b8000000520044
:100da00081805a0002015b0083815b004f0678005e
:100db0004f05be004f04be0000000600889fbe0025
:100dc0008a9fbe008c1f78000006eb00e00f5000e9
:100dd000e08f5800e00f5900e08f590007003d00f8
:100de0006044b8006055b8000000540081805c0089
:100df00002015d0083815d001c002000e00f5200b5
:100e0000e08f5a00e00f5b00e08f5b0007003d00c1
:100e10006044b8006055b8000402540085825c004c
:100e200006035d0087835d000c00a2000c00070034
:100e30000c00e000060032006022b8006033b80009
:100e40000000520081805a0002015b0083815b0038
:100e50004f0678004f05be004f04be00000006009c
:100e6000889fbe008a9fbe008c9fbe000404b8000d
:100e70000506b8008904460060854e000606b800e5
:100e80000a054600e0854e000706b8008b054600bf
:100e9000040eb800890446000a854e00e0854d0026
:100ea000050eb8000a0546008b854e00060eb800f8
:100eb0008b0546000416b8000a0546008b854e00d7
:100ec0000516b8008b054600041eb8008b054600c9
:100ed0000800be000a01be004f06be004f05be005e
:100ee0004f04be00000006000000fa00e881570031
:100ef0004fb99700d40207000080fa0000000600f6
:100f0000f8000700500107008401070000020700f5
:100f10002802070045030700f0023700800178002f
:100f200002003700b15978000201e9000200e00038
:100f3000fcff3a0000000600889fbe008a9fbe00aa
:100f4000800478000200e0005b003200014078007d
:100f5000814c780082814400f1f99f00e20f51003a
:100f60005500360091449800a1449800e1f99f0093
:100f7000d1f99f00e60f51004f003600b1449800b0
:100f8000c1f99f00e80f51004b0036000905ea0047
:100f9000630565000a8444000a055100c1ff2f0063
:100fa000010565000080fb008000eb0012102000ae
:100fb0001310200013060700008cbe000a01440035
:100fc00060b99f0071b99f00e80f55003a003600e4
:100fd00020049800310498004004980051049800bf
:100fe00020b99f0031b99f0040b99f0051b99f00bf
:100ff000f80f550030003600600498007104980026
:10100000000c9800110c9800200c9800310c9800ee
:10101000400c9800510c980020b19f0031b19f0006
:1010200040b19f0051b19f0060b19f0071b19f001e
:1010300000b99f0011b99f0064016400780141006c
:1010400002044400020555006011b8000203be000e
:101050000002be000403be006022b800000072005f
:1010600081807200020173008381730010003700d9
:10107000009cbe000294be004004980051049800f9
:101080006204980073049800000c9800110c9800fa
:10109000220c9800330c9800400c9800510c9800da
:1010a000620c9800730c98000a02b1000802b000ac
:1010b000ff0f5500eeff3e00090078004f05be000f
:1010c0004f04be0000000600889fbe000004be0062
:1010d000080078004d0007000000440089007800f7
:1010e00043000700080078004f04be00000006001f
:1010f000881f780001047800880078000500070048
:10110000904f1400010032000000eb004f04780003
:1011100000000600881f7800000478008180fb0032
:101120000a003a0008007800380007000000440078
:10113000220037001804e000200032000804e80014
:101140001081fb00810f51001c0032000800780064
:101150000808a300f7ff3a0014102000048ab90021
:101160000801780038007800f5ef2f0080824200f7
:101170008081ea0083826200030828008382620083
:1011800007003a0000006a00f5ef2f00808242005d
:101190000080ea000080620083016000f0ff3200fe
:1011a000020078001204e000040032000201e800ae
:1011b0009081fb00818f5100f9ff3a004f047800c5
:1011c00000000600810178000002780030417800bc
:1011d000b14f510002003a000204e000f9ff3a006a
:1011e0009480fb001380fb0000805000000006008c
:1011f000881f78000004780008007800f2040700d7
:10120000080078004f047800000006008000780095
:10121000040037003104e00002003a0000005100f1
:1012200000000600010178000108a300f9ff3a0060
:101230008101780031017800f4ef2f0002024200b2
:101240000281ea0002016200040828000401610032
:10125000f7ff320083007800010178003104e000dc
:10126000fdff3a0000005100000006008001eb0085
:101270000200e00010003200000278000103780054
:10128000b44178000304e00008003200b142780065
:101290000504e0000500320082034000848f530003
:1012a0000200320085cf5100f4ff32008381fb0041
:1012b0001680fb00808151000300780000000600ca
:1012c000889fbe000004be0008007800cfff070022
:1012d0000001e8000800be00ae0407004f04be0095
:1012e00000000600ec874700889fbe008a9fbe0072
:1012f0008c9fbe008e1f78000006780001047800e5
:10130000180790002805900098067800cdb79f0038
:10131000b80590003202be002203be000400be00e9
:101320000601be004f18de006011b8008000eb001f
:10133000d0b79f00e1b79f00f2b79f0083bf9f0027
:10134000800478000900e000060032006000b80068
:101350006011b8000402500085825800060359004d
:10136000878359000e00e000020035000d10a10037
:10137000cdb79f000900e00005003a004fb097008c
:101380000028a30002003a000038a3000200320047
:101390008a00e900010037008a007800f8815700d0
:1013a000a200200008007800860007000900e00085
:1013b00003003a00cfb097000128a30008003200d4
:1013c0000000e90000814500b1c2b3000900e0005f
:1013d00001003200d1c2b300014978000500370096
:1013e0000138a300030032000000e90001c2b3008d
:1013f00081757800480190000201e9000001510068
:10140000808045004fb297008a0178000c00780078
:10141000510207009c0090000188a30004003200e4
:1014200098009000810f500001003d0001007800fd
:101430004f0778004f06be004f05be004f04be00a8
:10144000cf00b100000006000200fa00889fbe0035
:101450008a9fbe00800578000104780002007800b1
:10146000180190002805900098007800b1bf9f00f7
:10147000b80490000200e000020035000110a10055
:10148000b1bf9f00ea815700820020008a007800e7
:101490003002be002003be000800780049000700ab
:1014a0003fb99700f0006100030032000000e9003e
:1014b00001c3b300817478003fb99700e800610070
:1014c000030032000000e90001c2b300817478001b
:1014d000480190000201e9000001510080804400b1
:1014e0003fba97008a0178000b0078001a020700c3
:1014f0009b0090000188a300040032009800900037
:10150000810f500001003d00010078004f05be0032
:101510004f04be000080fa0000000600ea87470082
:10152000889fbe008a9fbe008e1f7800000478004e
:10153000030078007287570084e2260055c7260012
:10154000049fbe00c3962200030f78006c875700eb
:10155000004feb0011059000a10490009105780068
:101560000200e000020032000207780001003700ac
:10157000728757000000e00002003a000e00780079
:1015800022ff07000a00e000030035008a0f500028
:10159000010036000a0078000b027800890178000b
:1015a000000178008e00780008007800ea0107004a
:1015b0004f0778004f05be004f04be00af00b100da
:1015c00000000600f4874700889fbe008a9fbe0087
:1015d0008c9fbe008e1f78000605be000404be006e
:1015e00081bf9f0082b79f00f3b79f00b0009000bb
:1015f000e1b79f001301780092b79f00900690001a
:10160000400090000000e900000678000d00e000b6
:1016100001003d001d0020008040eb00efb197006d
:10162000817178001e0020001f0037000c06e900c1
:101630000fb09700cf80de006109b900a0b79f000e
:10164000b1b79f00c2b79f00d3b79f000203be008f
:101650000002be000800be000a01be0075fd0700c2
:10166000000778000e4078000043b000efb097000c
:1016700080707e008d06e9000fb997000201e90035
:1016800082bf9f002fb29700bfb297004fb3970061
:10169000dfb397000800be000a01be005efd070030
:1016a0000205be000004be000c00e0000d00340086
:1016b000e00f5400e08f5c00e00f5d00e08f5d0004
:1016c000daff3a000d00e000d8ff3c008fb9970028
:1016d0000300e000030034001fb097000018a300cf
:1016e000d2ff3a000e00e00002003a00ffb097007f
:1016f0001140a1000c0078004f0778004f06be0093
:101700004f05be004f04be004f01b10000000600af
:101710000200fa00889fbe008a9fbe000005780084
:10172000010478000200780018019000a8049000dd
:1017300098007800b1bf9f00b80590000200e0005b
:10174000020035000110a100b1bf9f00ea815700df
:10175000a2002000890078003002be002003be00f5
:101760000800780097ff0700480190000201e90097
:1017700000015100808045003fba97008901780040
:101780000a007800740107009a0090000188a30005
:101790000400320098009000810f500001003d00cd
:1017a000010078004f05be004f04be000080fa0023
:1017b00000000600fa874700889fbe008a9fbe008f
:1017c0008c9fbe008e1f7800800478000104780092
:1017d000820578001801900028059000180778000d
:1017e000b80090000200e000020035000e10a100d9
:1017f000010037001200200070006700e0b79f0072
:10180000090032003b02be002b03be00e00f520075
:10181000e08f5a00e00f5b00e08f5b0002003200b7
:101820008a86e900010037008a067800e80267002e
:10183000f5b79f00010032008d06e9003b02be00b3
:101840002b03be00e4af9f00f5af9f0086b79f005b
:1018500097b79f00480690000c06e9000040eb0097
:1018600080707e00efb297007fb297008903780006
:1018700081047800d8af9f00020478008bbf9f00de
:101880008a057800034578002a0037000c06e90035
:101890006fab97006f006300e90f500002003c003f
:1018a0000003b000010037007005b0000a03fb0020
:1018b0001604b100f90f53000c003e00000378003d
:1018c0000650a0001606b100f90f530007003e00b5
:1018d000b4b79f00a5b79f00c7b79f00610307007b
:1018e000cfb39700afb297003fb2970080747e00ed
:1018f0000804e9008d06e9006fa89700ffa897008b
:101900000fb197009fb19700460020008301d100de
:101910000281d3008180d3000080d3000603e90058
:10192000faff3a00e0af9f00f1af9f0082b79f003f
:1019300093b79f00e10f56000f0034006fa8970087
:10194000ffa897000fb197009fb19700e00f5000dc
:10195000e08f5800e00f5900e08f5900cbff3a00ac
:101960000800e000c9ff3c000d00e0000200340068
:101970000e18a300c5ff3a0089007800f4b79f0055
:10198000870478005fac97008a4178000b057800e7
:101990008fbd97000500e000100032003b02be0042
:1019a0002b03be00e4af9f00f5af9f0086b79f00fa
:1019b00097b79f00e00f5200e08f5a00e00f5b00e6
:1019c000e08f5b00050032000c06e90083707e00aa
:1019d0000c06e90000c3b30080707e00ffb29700e0
:1019e0000500e000030032000c06e90000c2b3006d
:1019f00080707e00480190000201e9000c01510056
:101a00008c8040000e0278008a017800090078007e
:101a1000d1000700990090000188a3000400320063
:101a200098009000810f500001003d0001007800f7
:101a30004f0778004f06be004f05be004f04be00a2
:101a4000af01b10000000600f28747008e1f78004a
:101a500002027800030178000000e000020032007a
:101a60000007780001003700728757008002eb0002
:101a70000100e000010032008102e900708057009f
:101a8000060009000018eb000080eb0080bf9f00fb
:101a90002310200093bf9f00aebf9f00b1bf9f00e7
:101aa000c5bf9f000100e00003003d00b10420001d
:101ab000c15e880006003700004feb00eebf9f00bc
:101ac000debf9f008400780070805700ec020700a2
:101ad0004f0778002f01b1000000060084082000a5
:101ae000848f50001d0032000d003c0014082000bf
:101af000848f50002700320002003c0004082000c0
:101b00000400370024082000848f50003400320085
:101b100044082000848f500043003a00360037000c
:101b2000040a2000848f50002700320004003c008b
:101b300004092000848f50003b003a002800370041
:101b4000020c2000828f50002f003200020f200074
:101b5000828f500034003a002b0037009380e90058
:101b60000200e00005003200810978001102fb004c
:101b7000cfa2de00612bb900280037008109780070
:101b8000114278000482fb008002eb006033b80051
:101b90002200370013027800e40052000200e00047
:101ba00005003200810978001102be004fabde0053
:101bb0008603780019003700810978001102be0001
:101bc0006033b800150037009380e9008109780080
:101bd00011027800cfa2de00612bb9000f003700a0
:101be00093027800e8805200810978003102be003b
:101bf0002103be00090037009380e9000200e000e5
:101c000002003200f1ff37009380e900810978007b
:101c1000110278008002eb006033b8000498be0027
:101c20000690be00100005000000050044082000da
:101c3000848f50002500320008003c00140820006a
:101c4000848f50001400320024082000848f50003c
:101c500024003200040820000c0037000409200092
:101c6000848f50001f00320004003c0084082000d4
:101c7000848f500024003a000e003700040a200030
:101c8000848f500011003200040c2000848f50001b
:101c90001d003a000d0037009380e90081097800ab
:101ca0009100780001087800cf91de008288be00a4
:101cb000140037009380e9008109780091007800d2
:101cc00001087800824878000e0037009380e90010
:101cd0008109780091007800010878008208780076
:101ce000080037009380e9008109780091007800ae
:101cf000010878006112b900612bb9008498be0018
:101d00008690be001000050000000500889fbe0000
:101d1000000478004800900082047800808f54000e
:101d20000100360080047800090178005800900016
:101d30007afc070058009000090040005004980009
:101d4000c800900089845000490498000048eb00c6
:101d50004f04be0000000600f2874700889fbe00c7
:101d60008a9fbe008c9fbe008e1f78008004780082
:101d7000010578000204780083057800610762009d
:101d800002003a008b0f5400080039000801780067
:101d90008a00780009007800dcff07008b0f5400f0
:101da00002003900880578001e00370008865500bb
:101db0000c017800f00f56000100360002012000ef
:101dc000010220007e8057005bfc07008c06780033
:101dd0000500370002012000fe805700090078004e
:101de000caff0700f0865600ef8f5600f9ff3e004d
:101df0004461de0000ff2f000091b900020146009f
:101e0000fe80570009007800c0ff07000e00e000c8
:101e100004003a00080178008a0078000900780080
:101e2000baff07000b0078004f0778004f06be008e
:101e30004f05be004f04be002f01b1000000060098
:101e4000000005000000050000000500000178000a
:101e50000040eb008080fb008180400023bc20001c
:101e600063c278000404e00003003a0030bc2000a4
:101e700060c078000000060092017800934f520085
:101e800004003a0030bc200060c078000309e8007c
:101e9000010037000040e800ea4f5000edff360037
:101ea00000000600f6874700889fbe008a9fbe009c
:101eb0008c9fbe008e1f780000057800010478001a
:101ec00083057800040678000000eb00c0b79f008f
:101ed0008080eb00d1b79f00e0b79f00f2b79f0072
:101ee0000008200080bf9f00980078000100780063
:101ef0008004eb00010037008904e80030417800dd
:101f00000204e0000300320053c2b300834f5100cb
:101f1000f9ff3a000900e0000400320009017800ee
:101f20000a00780079ff0700188c44001807780031
:101f300050c2b3009e4f10003f013a000e07e80068
:101f40000e0c780010003700cfb097000100a00001
:101f50000b003700cfb097000110a0000800370039
:101f6000cfb097000120a00005003700cfb0970048
:101f70000130a00002003700cfb097000140a00060
:101f8000c1b79f00000ce80018007800904078006e
:101f9000b2c2b30082cf5000f1ff320007003c0014
:101fa00002c2b30082cf5000f0ff320032c2b30051
:101fb00082cf500007003a00efff3700d2c2b300d3
:101fc00082cf5000e0ff320002c3b30082cf500046
:101fd000e0ff3200a2c2b30082cf50000d003a00f1
:101fe000000ce8001c80e900000e7800100078006a
:101ff000e0b79f000000e0000f003d00cfb0970069
:102000000100a200c1b79f000000ea00e0b79f00f6
:102010000900370039010700e0b79f0001003700d1
:10202000000ce800180078009000fb000103b100ec
:10203000e98f5000faff36004fb097000008a30068
:10204000020032000010a100c0b79f001800780005
:10205000e1c2b30090cf100016003a008000eb0000
:10206000d1b79f000000e800000c7800a1c2b300c7
:1020700090cf100006003a00000ce8001c80e90038
:10208000000e780010007800d0b79f0009003700dc
:102090001a010700d0b79f0001003700000ce800cc
:1020a000180078009000fb000103b100e98f500098
:1020b000faff36000800780064ff070080467800c9
:1020c000180078001000fb005f0107009106200057
:1020d000810f50003800320012003c004106200001
:1020e000810f5000340032000a003c00110620002d
:1020f000810f50002000320031062000810f500077
:10210000a000320051022000810f5000bc003a00b4
:10211000b400370071062000810f5000b8003c0069
:102120008800370001072000810f50005c0032005a
:1021300007003c00e1062000810f50007a003200c9
:10214000f1062000810f5000ad003a003900370041
:1021500051072000810f5000270032008107200026
:10216000810f50004200320031072000810f5000e3
:10217000a3003a008f0037008d80fb000c0178002f
:1021800000fe2f000f0040004b0107000000e000a0
:10219000a800320018007800000ce8009041780098
:1021a00002fe2f000f014100f88057000a0078005e
:1021b00024ff07000e0037008d80fb008c017800a3
:1021c0001200200000fe2f000f00400043fe070019
:1021d0000000e00097003200180ce80002fe2f001b
:1021e0000f014100f88057000a0078003dfc07000d
:1021f00080844400900037008d80fb008c017800c3
:102200000001eb0000fe2f000f00400033fe07002e
:102210000000e00087003200180ce80002fe2f00ea
:102220000f014100f88057000a00780038fd0700d0
:10223000efff37008d80fb008c0178000001eb0080
:1022400000fe2f000f00400024fe07000000e00009
:1022500078003200180ce80002fe2f000f01410048
:10226000f88057000a00780077fc0700e0ff37008d
:102270008d80fb008c0178000001eb0000fe2f0038
:102280000f00400015fe07000000e000690032006a
:1022900018007800000ce800904178001c0037001e
:1022a0008c0178000001eb00010f200000fe2f00e0
:1022b0000f00400009fe07000000e0005d00320052
:1022c000180ce8000fb097009fb097002fb197004f
:1022d000bfb19700e00f5000e08f5800e00f5900a9
:1022e000e08f590009003a00cfb597006fb497000e
:1022f000a0bb2000c5fb07000b0278008801780016
:1023000000017800a1bb20004700370083c7b3005d
:1023100002fe2f000f014100f88057000a007800ec
:1023200024fd0700b2ff37000b8144008d80fb00c5
:102330008c01780000fe2f000f0040003bfe0700dc
:102340003c0037008d80fb000c01780000fe2f0060
:102350000f004000d80007000000e0003500320008
:1023600018007800000ce8009041780002fe2f0071
:102370000f014100f88057000a007800b1fe070005
:102380009bff370000c8b30080cf560029003a00f9
:10239000180ce8001c80e900000e7800104078005e
:1023a000e0df9f0013002000e2fd2f000f0141003d
:1023b0000800370000c8b30080cf56001d003a0067
:1023c000180ce8001c80e900000e78008001eb008a
:1023d00010017800f88057000a0078004ffc0700d1
:1023e00083ff370000c8b30080cf560011003a00c9
:1023f000180ce8004fb29700efb1970008003700c3
:102400000e0c78000000eb00c0b79f00e0b79f0003
:102410000080eb00d0b79f000002eb008401780041
:102420001200200001bc20000a0078004afe0700cc
:102430006fff3700180ce800090078004f0778009c
:102440004f06be004f05be004f04be006f01b10035
:10245000000006008200fa00889fbe008a1f7800f4
:102460000005780082047800c13f9f000004eb0063
:10247000100037000902780088017800a2f72f00c9
:102480000f01410081f72f008f8040000a00780083
:1024900084fe070008004000880f500004003d0043
:1024a000b0042000c05e88000084eb000400370008
:1024b000000478004f3897001004e000edff3a0068
:1024c000080078004f0578004f04be000080fa0035
:1024d00000000600800078001000200002022000aa
:1024e000828f500004003200e9805000e48f5000d9
:1024f000010036000000eb0000000600889fbe00cf
:102500008a1f7800000578000a0478009844780053
:102510000805e8000900fb00eeff07000000e000ee
:10252000f9ff3a00b0c2b30080cf5400050032007a
:10253000d0c2b3008000eb0080cf540005003a0009
:10254000020037008000eb0001003700110020007e
:102550000804e8000000eb00030037006a02b9003d
:10256000020052000003b0003801fb0003fd2f0001
:1025700082814100e98f5100f8ff36000100e00040
:1025800001003a000000ea004f0578004f04be0049
:10259000000006008180fb00060037000201e90010
:1025a00082014000604279000482fb00810f5200ea
:1025b000030032000200e000f8ff3a0000000500ce
:1025c0000300780000000600010178008001780017
:1025d000008268000408a3000500320013003700e1
:1025e00032407800805978000004e0001400320086
:1025f000030278000208a300f9ff3a000300780004
:10260000010037000318780082007800b2017800da
:10261000f5ef2f00838242000382ea000482620009
:102620000508280005026200f6ff3200000278006b
:1026300031417800025878000204e000fbff3a00c4
:102640000400780000000600f1fb2f0080804000ad
:10265000f98f500001003e000050a000000006006d
:10266000f9ff3700f1f92f0080804000f98f50000a
:1026700001003e00f005b20000000600f9ff37003f
:102680000200fa00881f780000047800e2bf9f0073
:1026900064815700080078006eff070098009000e2
:1026a0000148a300010032000080eb004f047800d5
:1026b0000080fa0000000600881f780000047800ff
:1026c00000082000808f50001700350010082000ff
:1026d000808f50000b00340030082000808f5000a5
:1026e00011003a00920078006880500000097800dc
:1026f0003002be002003be00049cbe000694be0053
:1027000007003700920278006480520000097800c8
:102710001000be0007000700009cbe000294be002f
:1027200010002000010037000000eb004f0478008b
:1027300000000600810378001d0007000001be00b4
:102740006000b8000478a30013003a006220e100a2
:1027500015003e000d0039008301d1000281d30035
:102760008180d3008301d1000281d3008180d30016
:102770008301d1000281d3008180d3000538b000ed
:10278000c42add00f300b2008381720007f0a700c5
:1027900003f0a0000000060083ff270002002000d5
:1027a0006110b900f9ff370003ff2700f7ff37007a
:1027b000c70ade00f107b200f50fb20008003200d0
:1027c000e1cf4200020032000170a00024000500a9
:1027d000810f70000100320004080500440005006c
:1027e000810f700002003a00140005008502e90024
:1027f0000000400081c04800fcff3b000170a000c9
:1028000024000500020ab900001bb9000200b8004c
:0c2810008100420081004300000006002f
:020000040000fa
:10281c005241000030000000524100003100000025
:10282c00524100003400000052420000350000000c
:10283c0052420000360000000e940000129400007a
:10284c00169400001a9400001e9400004f460000dd
:10285c004600000044490000004400004f00000006
:10286c004144000043000000505700004d000000a0
:10287c00434f0000554e000054000000465200002b
:10288c0045510000000000002c9400003094000022
:10289c0033940000369400003a9400003e940000fb
:1028ac0044940000504900004e3d00002573000088
:1028bc003b4d00004f440000453d000025730000d7
:1028cc003b4100003d2500006c7500003b420000c0
:1028dc003d2500006c7500003b4300003d250000c9
:1028ec006c7500003b4400003d2500006c75000039
:1028fc003b4500003d2500006c7500003b46000088
:10290c003d2500006c7500000042000041440000b1
:10291c005f41000052470000554d0000454e00003d
:10292c005400000041550000584300004150000085
:10293c0000410000555800003d3100003b500000a4
:10294c00494e0000533d000052410000302c000065
:10295c0052410000312c000052410000342c000088
:10296c0052420000352c000052420000363b000061
:10297c0041440000435f00004d410000583d000001
:10298c0031300000303000003b500000574d00004b
:10299c005f4d0000494e00003d310000303b00000f
:1029ac00505700004d5f00004d410000583d0000a5
:1029bc003130000030300000303000003b4e000061
:1029cc00564d00003d3100003b5000004f4c0000c4
:1029dc004c5f00004d4900004e3d000035300000ba
:1029ec00300000004f460000462c00004449000017
:1029fc002c4400004f2c0000434f0000554e0000ab
:102a0c00542c00004652000045510000004f0000bd
:102a1c00464600002c440000492c0000444f0000a6
:102a2c002c500000574d00002c4300004f55000067
:102a3c004e5400002c46000052450000510000008e
:102a4c004f460000462c0000444900002c44000076
:102a5c004f2c00004144000043000000504900008e
:102a6c004e3d0000257300003b4d00004f4400001c
:102a7c00455300003d250000730000004155000047
:102a8c005847000045540000004100005558000014
:102a9c0053450000540000004155000058520000fe
:102aac004541000044000000504900004e3d00002c
:102abc00257300003b4d00004f440000453d0000d5
:102acc00257300003b560000414c000055450000aa
:102adc003d250000753b0000434f0000554e0000a3
:102aec00543d0000256c0000753b0000485a000066
:102afc003d2500006c7500003b4600004155000070
:102b0c004c5400003d250000753b00005641000070
:102b1c004c490000443d00002575000000410000b8
:102b2c00555800005341000056450000005300006a
:102b3c0041560000454400003d3100003b4300007d
:102b4c00484100004e470000454400003d30000065
:102b5c000053000041560000454400003d31000088
:102b6c003b4300004f5500004e54000045520000fe
:102b7c00533d000052450000534500005400000036
:102b8c004e5600004d5f000045520000524f0000b1
:102b9c005200000041550000584e0000564d0000f8
:102bac00004c00004f41000044450000443d000033
:102bbc00257500003b4400004952000054590000a8
:102bcc003d250000753b00005343000048450000c4
:102bdc004d4100003d31000000490000324300002f
:102bec0047450000540000004b4800005a3d0000cf
:102bfc00257500003b4d0000415800003d250000ac
:102c0c00753b00004c430000443d0000257500005e
:102c1c0000490000324300005345000054000000fe
:102c2c0049320000435f00004c430000445f000049
:102c3c0031300000304b0000004b0000485a0000bf
:102c4c003d2500007500000049320000435800008b
:102c5c00464500005200000042410000445f000065
:102c6c004144000044520000455300005300000052
:102c7c0049320000435f00004c430000445f0000f9
:102c8c0052450000534500005256000045440000d8
:102c9c0000490000324300005f4e00004143000039
:102cac004b5f0000544900004d4500004f5500009b
:102cbc005400000044410000544100003d0000005d
:102ccc0000030000010600000401000001300000b8
:102cdc003132000033340000353600003738000044
:102cec00394100004243000044450000460000000a
:102cfc00544b0000317c0000007c000000300000d0
:102d0c003132000033340000353600003738000013
:102d1c0039410000424300004445000046000000d9
:102d2c004d4f0000444500003d4900003243000077
:102d3c003b41000044440000523d0000004d0000a7
:102d4c004f440000453d000050410000524100003e
:102d5c004c4c0000454c00003b410000444400003a
:102d6c00523d0000003b00004f4b00003d31000085
:102d7c00003b00004f4b00003d300000004f0000b6
:102d8c004b000000544b0000310000004241000099
:102d9c00445f0000464f0000524d000041540000bb
:102dac00004500005252000000480000454c000055
:102dbc004c4f0000004d00004f440000454c0000fb
:102dcc003d5400004b4c0000494e00004b2d0000c0
:102ddc004143000043450000535300002d300000d8
:102dec00313b0000485700003d4100003b460000cd
:102dfc00573d0000302e0000332e0000313b000008
:102e0c0043410000503d0000414300004345000099
:102e1c00535300002c4b000045590000504100005a
:102e2c00442c00004c430000442c00004c43000098
:102e3c00445f00004d4f0000444500002c42000050
:102e4c00555a00005a450000522c00004255000013
:102e5c00545400004f4e0000532c0000415500000c
:102e6c00583100003b500000524f0000544f0000fe
:102e7c003d31000000530000544100005455000047
:102e8c00530000005354000041540000453d000025
:102e9c004c4f0000434b00004f5500005400000005
:102eac005354000041540000453d00004f500000b9
:102ebc00454e0000005300005441000054450000f2
:102ecc003d4300004c4f00005345000044000000ff
:102edc004155000054480000004c00004f430000d6
:102eec004b4f0000555400000041000055540000a9
:102efc00483d00003100000042410000445f0000ea
:102f0c00504900004e0000004f500000454e00009c
:102f1c000041000055540000485f0000524500007d
:102f2c00515500004952000045440000004c00007f
:102f3c004344000047450000540000004c4300008f
:102f4c00445300004554000000420000555300005b
:102f5c005900000050410000524100004c4c000050
:102f6c00454c000000490000324300002c000000da
:102f7c0042410000445f0000414400004452000004
:102f8c00455300005300000042410000445f000024
:102f9c0041520000475500004d4500004e540000c2
:102fac00004c0000434400005f4900003243000025
:102fbc005f450000525200004f52000000410000db
:102fcc005558000000490000324300000041000049
:102fdc0055580000534500005400000041550000b6
:102fec0058530000415600004500000049320000d3
:102ffc0043530000455400000049000032430000d8
:10300c005846000045520000005500004e4b000091
:10301c004e4f0000574e00005f4300004f4d000024
:10302c004d4100004e440000004200005945000094
:10303c000053000045530000534900004f4e000060
:10304c003d4500004e4400004544000000000000d7
:10305c00544b0000204c0000494e00004b20000057
:10306c004143000043450000535300000050000052
:10307c00494e00003a200000000000000000000053
:10308c000000000000000000000000000000000034
:10309c003235000038300000004900006e67000037
:1030ac00726500007365000020500000494e00005e
:1030bc0020230000004100007065000072740000c5
:1030cc0075720000612000006163000074690000eb
:1030dc00766100000041000063630000657300002e
:1030ec006f20000070650000726d000069740000b4
:1030fc00696400006f0000004573000070650000fb
:10310c0072650000203300003020000073000000c6
:10311c004163000063650000736f000020620000d3
:10312c006c6f00007175000065610000646f000039
:10313c00004900006e740000656e000074650000ac
:10314c0020640000652000006e75000065760000ac
:10315c006f000000504900004e200000696e000016
:10316c00636f00007272000065630000746f0000f2
:10317c000000000042410000445f00004d4f000081
:10318c004445000000420000414400005f52000032
:10319c00414e000047450000004100004443000040
:1031ac005f5300004841000052450000445f00009e
:1031bc00424900005453000000500000574d0000dd
:1031cc005f5300004841000052450000445f00007e
:1031dc0046520000455100000042000041440000ee
:1031ec005f41000052470000554d0000454e000065
:1031fc005400000001000000080000004000000026
:10320c000001000031320000334100003435000071
:10321c003642000037380000394300002a300000e5
:04322c002344000037
:020000040000fa
:103230000a00fa0030079800410798006000b800c3
:10324000008fbe000040eb00404798003e00900019
:10325000104078000004e00033003a000040eb002a
:103260003a0037003e00900010407800804078001f
:1032700000cdb30000c04000504798003e009000d1
:103280000000e800300798005e409000e94f5000d1
:1032900011003e004e4090000040e800404798007a
:1032a0004e409000ea4f50000b003e005e40900000
:1032b0000080fb008000eb000080ea008180ea00d3
:1032c000a200200003002000aaf50700be0f500056
:1032d000ae8f5800020031000040eb001b003700a9
:1032e0001e0090006a00b900000178001e007800fe
:1032f0006000b90000007800000141009e007800e5
:10330000a00020000008b800010141008200780000
:103310005e4190000281fb008001eb00021f400033
:103320000397480001003700000000003e009000b5
:10333000104078000004e000caff3a004e00900000
:103340003e1878002e10780010c0b3000080fa00fc
:10335000000006000400fa00100798000040eb008f
:10336000004f78000d0037001e80fb0080004000f9
:103370002042290000804000100078008000780082
:103380001e0090008ff707000000e00002003a00e6
:103390001e80fb00050037001e4fe8001e4078002d
:1033a000e44f5000f0ff36000080eb000080fa0090
:1033b000000006000400fa00100798000040eb002f
:1033c000004f78000d0037001e80fb008000400099
:1033d000a0442900008040001000780080007800a0
:1033e0001e00900077f707000000e00002003a009e
:1033f0001e80fb00050037001e4fe8001e407800cd
:10340000e64f5000f0ff36000080eb000080fa002d
:10341000000006000a00fa00200798003107980013
:10342000024f98000040eb00004f78000e489000db
:103430009e40780080cf500002003a000040eb0030
:10344000170037001e80fb0000004000be00900007
:1034500000804000ae009000010878001e4fe80098
:10346000c10220002e00900021f7070010079800ed
:103470001e0090000000e00002003a001e407800ac
:10348000070037001e0090008040eb0001487800e4
:103490001e0090000000e80020079800e3ff3700be
:1034a0000080fa00000006000800fa0020079800db
:1034b00031079800d40a07000040eb00004f780065
:1034c000960037001e80fb007a00b900800078006b
:1034d000008020000080400010007800e10f5000c4
:1034e0008d003a001e407800610707000080fb0055
:1034f000100798001e80fb007a00b90000007800d9
:10350000f2004000208820000080400090007800f9
:103510001e009000808f50000e0032001e80fb00c5
:103520007a00b900800078004089200000804000c7
:103530009e009000010878001e80fb007a00b90010
:103540008000780060892000008040008000eb004f
:10355000010878001e80fb007a00b90000007800a6
:10356000f400400020882000008040009000780097
:10357000803e2000808f50000d003e001e81fb0029
:103580007a10b90000007800f40040002088200084
:1035900000804000100078008001e8007a10b90037
:1035a00080007800608920000080400003087800d7
:1035b0001e80fb007a00b90000007800f000400097
:1035c0002088200000804000900078001e009000bd
:1035d000808f5000500032001e80fb007a00b9003e
:1035e00000007800f40040002088200000804000a7
:1035f000100078006101b8001e80fb007a00b9005d
:1036000000007800ea0040000080200000804000b8
:103610001000be00800f5100818f59003e0039001c
:103620001e80fb007a00b90080007800208920000d
:10363000008040009e009000010878001e80fb0082
:103640007a00b90000007800e60040000080200009
:10365000008040001001be0030002000010020006a
:10366000800f5100818f59001e0032001e00900013
:103670000000e0000c0032001e80fb007a00b90060
:1036800000007800e600400000802000008040003c
:103690001001be001000200001002000800f51002a
:1036a000818f59000f0032001e0090000000e000e2
:1036b00019003a001e80fb007a00b9000000780073
:1036c000e600400000802000008040001001be00a5
:1036d0002000200001002000800f5100818f590040
:1036e0000d003a001e81fb007a10b90080007800be
:1036f00020882000008040001000be0061004000d3
:10370000e08048007a11b900820178002288200008
:10371000028141000089be001e4fe8001e40780073
:10372000e44f500067ff36000080fa0000000600fa
:103730000a00fa00889fbe008a9fbe00604798007a
:10374000410798006e4090000080fb007a00b900ad
:1037500000007800f200400000802000008040005f
:103760001001be0012079800230798006e409000d9
:103770000080fb007a00b900800078000080200003
:103780000080400010007800e30f50004f013a0025
:103790006e4090000082fb006e4090000080fb00b5
:1037a000c500dd0040902000008040001001be00f8
:1037b0004e0090008000eb00020040008380480033
:1037c000c521dd0042902000028141000089be0039
:1037d0006e4090000080fb00c500dd007c81400051
:1037e0004190200081004100914078000141e800b3
:1037f000c501dd00019220008180410082487800ef
:103800004500dd00fc0040004090200000804000aa
:10381000104078000081fb008001eb006e409000ba
:103820000080fb007a00b90000007800ee00400044
:1038300000802000008040001000be00800f51007a
:10384000818f5900230139006e4090000080fb00f9
:10385000c500dd0040902000008040001001be0047
:103860006e4090000080fb004500dd00fc00400041
:103870004090200000804000104078000080fb0055
:103880000000d100004078000080fb008000eb00c9
:1038900002024000838248006e4090000080fb00de
:1038a0004500dd00fc00400040902000008040000a
:1038b000104078000080fb008000eb000001be009b
:1038c0000400be002bf40700000f78006e4090004b
:1038d0000080fb00c500dd0040902000008140001a
:1038e0006000b8000089be006e4090000080fb00c0
:1038f000c500dd0000922000008040008040eb0009
:10390000014878001e019000ae01900010002000d8
:1039100001002000800f5100818f59007c003a0087
:103920006e4090000082fb006e4090000080fb0023
:103930004500dd00e4004000409020000080400091
:103940001001be006e4090008080fb006e40900031
:103950000080fb004500dd00fc024000409020009c
:1039600000804200104090000080fb00c408dd0091
:103970000080400066004000800040004090200031
:1039800000804000100078008000eb000000510033
:1039900081805900c521dd00829020000281410014
:1039a0000089be006e4090008080fb006e40900059
:1039b0000080fb004500dd007c01400040902000bd
:1039c00000004100104090000080fb00c408dd00b2
:1039d00000804000660040008000400040902000d1
:1039e000008040001e0878006e4090000082fb00be
:1039f0006e4090000080fb004500dd00e4004000c8
:103a000040902000008040001001be001e007800a1
:103a10008000eb000200400083804800c521dd00eb
:103a200082902000028141000089be006e4090001b
:103a30000080fb00ee4090008180fb00c508dd00a7
:103a40007c81400041902000810041009140900025
:103a50008140e800e7c060004501dd0000922000e1
:103a600000004100114098006e4090000080fb0073
:103a70004500dd00fe004000409020000080400036
:103a800010407800e74f50000c003e006e40900060
:103a90000080fb00c500dd007e81400041902000d9
:103aa00081004100914078008140e8004501dd003f
:103ab0002092200000004100014878006e409000f4
:103ac0000080fb004500dd00e40040004090200045
:103ad000008040001002be006e4090000080fb009d
:103ae0004500dd00fe0040004090200000804000c6
:103af000104078000080fb008000eb000001be0059
:103b00000400be009bf30700000f78006000370040
:103b10001e019000ae019000200020000100200056
:103b2000800f5100818f590059003a006e4090007b
:103b30000080fb004500dd00fe00400040902000ba
:103b400000804000104078000004e00014003a00bb
:103b50006e4090000082fb001e0078006101b800fa
:103b60004818dd00c810de00810070004810dd003c
:103b7000c521dd00c2902000028141000089be0005
:103b80006e4090000080fb00c500dd002092200008
:103b90000080400011c0b3000148780028003700c1
:103ba0006e4090000083fb006e4090000080fb00a0
:103bb0004500dd00e800400040902000008040000b
:103bc0001001be001e0078008000eb00480add00f6
:103bd000c802de00850272004802dd006e409000df
:103be0000080fb004500dd00e80040004090200020
:103bf000008040001000be000000520081805a008a
:103c0000e00f5000e08f580002003d0067004000c8
:103c1000e08048004d0add004305de000a05720021
:103c2000c38dde000a00be00020040008380480011
:103c3000c531dd00c2902000028141000089be0034
:103c40006e4090000080fb004500dd00e800400071
:103c500040902000008040001000be000008b0002e
:103c60000180b000e00f5000e08f580002003d00de
:103c7000f00fb0000180b0004809dd004804de000c
:103c800008047100c88cde000800be00000f780038
:103c90006e4090000080fb007a00b9008000780040
:103ca00020892000008040001e0878006e409000af
:103cb0000080fb00c500dd00209220000080400055
:103cc00011c0b3001140980003003700000000004d
:103cd00001003700000000004f05be004f04be0089
:103ce0000080fa00000006001400fa00889fbe0061
:103cf0008a9fbe008c1f7800000f9800110f98005b
:103d00000040eb00004f7800af0037001e80fb0042
:103d10007a00b90080007800008020000080400018
:103d200010007800e30f500008003a001e80fb00ee
:103d30007a00b90000007800f60040000080200002
:103d4000008040001000be00070037001e80fb000e
:103d50007a00b900000078008080e8000080200030
:103d6000008040001000be00100798002107980056
:103d70001e80fb007a00b9008000780000802000df
:103d80000080400010007800e30f500032003a003d
:103d90001e80fb007a00b90000007800e4004000bb
:103da00020882000008040001000be000e09900016
:103db0009e09900000015100818159001e00900071
:103dc000ae009000800f5100818f59007d003900b6
:103dd0009e81fb001e80fb007a00b9000000780085
:103de000f000400020882000008040001001780092
:103df0007a18b90080007800808920000080400097
:103e0000020878001e80fb009e80fb00c508dd00d4
:103e10007e814000419020008100410011419000ce
:103e20007a00b90080007800a0892000008040005e
:103e3000024878001e80fb007a00b90080007800fc
:103e400060882000008040000e0990009e099000cc
:103e50000288be005b0037001e80fb007a00b900bc
:103e60008000780000802000008040001000780072
:103e7000e50f5000080032001e80fb007a00b900f8
:103e80008000780000802000008040001000780052
:103e9000e60f50004b003a001e80fb007a00b9008c
:103ea00000007800e40040002088200000804000ee
:103eb0001000be000e0990009e0990000000510005
:103ec0008180590030079800410798003e0190001a
:103ed000ce0190001e009000ae009000800f5100b7
:103ee000818f590037003900ee0047006a00470013
:103ef00001017800800078001e4078006905070005
:103f00001e86fb005e019000ee0190001e80fb000b
:103f10007a00b90000007800e80040002088200006
:103f2000008040001000be00000051008180590058
:103f30006011b800843e2000050020006033b80006
:103f40009ef307000205be000004be003e00900084
:103f5000ce0090006011b8000203be000002be0057
:103f60000800be000a01be002bf307000000be00df
:103f70007a61b90082017800e28820000281410064
:103f80000089be001e81fb005e009000ee009000e4
:103f90007a11b90082017800a288200002814100d4
:103fa0000089be001e80fb007a00b9008000780006
:103fb00060882000008040000e0990009e0990005b
:103fc0000288be001e4fe8001e407800e44f5000fb
:103fd0004eff36004f0678004f05be004f04be006e
:103fe0000080fa00000006000400fa0040062000ed
:103ff00010079800220820008000eb0000802000bd
:10400000cdf30700220820008000eb00208820006c
:10401000c9f30700020420008000eb00409020005c
:10402000c5f307000e80e8008000780000802000c3
:104030000819070044e9b7000040eb00004f780082
:104040000e0037001e80fb007a00b9008000780067
:104050000080200000804000028020008000780066
:104060001e4078000d1407000000e000020032003e
:104070004469ef00040037001e4fe8001e4078003e
:10408000e44f5000efff360044c9bf000004a20017
:104090000004e00006003200220820008000eb004f
:1040a00000802000a4f307004006200010079800bd
:1040b0004f180700e14f500002003a004006200070
:1040c000100798001e009000201007009c070700b2
:1040d00000802000be0707004569ef000080fa005d
:1040e000000006000a00fa00889fbe008a9fbe00fa
:1040f0008c9fbe0020479800210798002e4090001a
:104100000080fb007a00b900800078000080200069
:10411000008f40001e007800300e9000c00e90000e
:104120001e007800100d9000a00d90001e00780079
:1041300070049000800c90001e00780050039000e6
:10414000e00390001e00780030029000c002900052
:104150001e00780010019000a00190001e00780061
:104160001000780080004000a0442900008040003a
:1041700010007800400798002e4090000080fb005f
:10418000000040003007980020422900be00900047
:1041900000804000100078008c9fbe008a9fbe0007
:1041a000889fbe00869fbe00849fbe00829fbe0087
:1041b000ce009000811f7800801f78008045290084
:1041c000801f7800010920002e00900046f30700b0
:1041d000fe8757004f06be004f05be004f04be00cd
:1041e0000080fa00000006000200fa00004f78008c
:1041f000f0c2b3009e40780080cf5000070034002a
:1042000090c3b3009e40780080cf500003003c0074
:104210001e00fb000003b1000c00370000c4b30017
:104220009e40780080cf50000700340060c4b30087
:104230009e40780080cf500003003c001e00fb0031
:104240007003b100010037000080eb000080fa002d
:10425000000006008000fa00889fbe00203f980002
:10426000313f9800423f9800533f9800643f9800c8
:10427000753f98005e3890008040eb000148780060
:10428000d2002000b14829004e38900023f30700e7
:10429000814929002e389000caf307000000e00091
:1042a0002e003a003e389000104078000004e000f4
:1042b00008003a0092052000f14929004e3890008c
:1042c00016f307005e38900011c0b3000148780073
:1042d000650337003e3890001efc07005007980029
:1042e0005e0090000000e0005f0335005e0090007b
:1042f000e10f5000070034005e009000e20f500014
:1043000002003a00804f290001003700d0502900f8
:104310000100370060522900de009000018140005a
:10432000214229008100410091007800801f78001f
:10433000811f780040532900801f78000109200068
:104340004e389000e8f20700e68757005e3890008c
:1043500011c0b300014878004303370041542900dd
:104360002e38900097f307000000e0000e003a009e
:104370003e389000f7fb0700500798005e00900061
:104380000000e000380335005e0090000040780037
:10439000ce38900053ff07005e38900011c0b30084
:1043a0000148780030033700b15429002e389000be
:1043b00084f307000000e000a7003a00c0022000dc
:1043c0000e004000a20120008000eb00daf207009e
:1043d0007800470082c0b300800078003e3890002b
:1043e0000cfc0700404f98004e489000e14f5000f1
:1043f000060036004e089000d6fb070050079800d4
:104400005e0090000000e00002003d0010c0b3001c
:10441000160337005e089000e6fb0700700798005f
:104420007e0090000000e00002003d0010c0b300dc
:104430000e0337007e009000601798004e489000f1
:104440008080fb006e109000626629006240780058
:104450000080fb000080e800808f500002003200e6
:1044600010c0b3000103370020c0b300004f780034
:10447000120037001e80fb000080e9004200dd00d2
:10448000c10220008e8040008180e80080804000d2
:104490001e80fb0000004000000047004008900024
:1044a00063fb07000004a2000004e00002003200e9
:1044b00010c0b300ed0237001e4fe8004e489000d8
:1044c0009e40780080cf5000eaff39005e009000e7
:1044d00000407800c10220008e8040000280200051
:1044e000ee120700000f98000e0890000000e00098
:1044f000050032008e0890004e3890003cf3070013
:1045000010c0b300d902370011028000110f9800cb
:1045100011028000000e20000100700010028800cf
:104520005e0090007a00b9008000780000802000d2
:1045300000804000c2022000020147000c00090078
:1045400032187800a001b1005e0090007a00b90036
:10455000800078002088200000804000a201200018
:104560008000eb0074f207005e0090007a00b90052
:104570008000780060882000008040006e39900044
:10458000fe3990000288be005e009000e10f5000ee
:1045900007003c005e009000c500dd004090200058
:1045a00000804000020220008000eb0062f2070061
:1045b0005e0090000040780001802000c5050700e3
:1045c0006e109000e10f500017003a005e0090005e
:1045d00000407800260307000081fb005e00900089
:1045e0007a00b90080007800208920000080400017
:1045f000020878005e0090007a00b90000007800a0
:10460000f000400020882000008040001001780069
:104610005e0090007a00b900800078004089200098
:1046200000804000020878009e0990001302880074
:1046300010c0b30045e9b7005e009000004078006c
:10464000ce389000a7fe07005e38900011c0b3007e
:104650000148780084023700215529002e38900047
:10466000d8f207000000e000cf003a006000b80078
:1046700030279800412798006000b8001007980084
:10468000210798000000eb00300798000040eb0085
:1046900020cf980010c0b300004f98003e38900023
:1046a0002cfb0700500798005e0090000000e0001f
:1046b00002003d0010c0b3006c0237001102800000
:1046c000210f980011028000000e200001007000f0
:1046d000100288005e0090007a00b9008000780027
:1046e000008020000080400010007800e10f5000a2
:1046f00011003a005e0090007a00b90000007800d6
:10470000f000400020882000008040001001780068
:10471000320798005e0090007a00b90080007800af
:1047200020882000008040001000be003027980044
:1047300041279800690037005e0090007a00b900b8
:104740008000780000802000008040001000780089
:10475000e30f500011003a005e0090007a00b900ab
:1047600000007800f6004000208820000080400013
:1047700090017800330798005e0090007a00b9003d
:1047800000007800f80040002088200000804000f1
:1047900090407800014f9800500037005e00900074
:1047a0007a00b9008000780000802000008040007e
:1047b00010007800e20f500009003a005e009000ff
:1047c0007a00b900000078008080e80000802000b6
:1047d000008040001000be00300798003f00370006
:1047e0005e0090007a00b900800078000080200010
:1047f0000080400010007800e50f500008003200f3
:104800005e0090007a00b9008000780000802000ef
:104810000080400010007800e60f500011003a00c0
:104820005e00900000407800a20420000e014100cc
:10483000610420008e8040001a0307005e00900093
:104840007a00b90000007800ec00400020882000c9
:10485000008040001001be00120798002307980056
:104860001e0037005e0090007a00b90080007800da
:10487000008020000080400010007800e40f50000d
:1048800016003a005e0090007a00b900000078003f
:104890008080e80000802000008040001000be0002
:1048a000c20420000e014100a61107000e2990004d
:1048b0009e29900012079800230798005e00900040
:1048c0007a00b90000007800e60040000080200077
:1048d000008040001000be0030079800ae09900034
:1048e000130288000e4890000004e000020032002d
:1048f00015002000010037008002eb002ec8900058
:104900000004e00002003200140020000100370023
:104910000002eb003e209000ce2090005e0190004f
:104920007a11b900820178000280200002814100e2
:104930001201780082014100a24429000281410055
:10494000920378005e01900082014100224229001a
:104950000281410012037800851f7800841f7800cf
:104960001e019000ae019000829fbe00809fbe009d
:10497000be009000811f7800871f7800861f780096
:10498000a0552900801f7800010920004e389000b2
:1049900055f10700f48757005e38900011c0b3004e
:1049a00001487800b0013700515929002e38900095
:1049b00004f207000000e00041003a003e38900099
:1049c000104078000004e0003d003a0045c9bf00f7
:1049d0000004a2000004e0000900320022012000cf
:1049e000d15929004e3890004cf107005e389000f4
:1049f00011c0b3000148780010c0b3009b0137001c
:104a000052050700900e070080007800008020000b
:104a1000f7160700de389000804878002208200052
:104a20008000eb002088200043f1070002042000f2
:104a30008000eb00409020003ff107000040eb00b9
:104a4000004f7800080037001e84fb001613070093
:104a50007a41b90082017800628820000281410019
:104a60000089be001e4fe8001e407800e44f500051
:104a7000f5ff360000802000550507005e389000e5
:104a8000104078000004e000080032004569ef00a3
:104a900010c0b30044e9b70072012000f15a2900a8
:104aa0004e3890001df107006f013700a200200072
:104ab000615c29004e38900018f107006a01370048
:104ac000015d29002e389000bef107000000e000d3
:104ad0001c003a003e389000104078000004e000ce
:104ae00018003a0045c9bf000004e000020032008f
:104af00011002000010037008000eb0044c9bf0016
:104b00000004e00002003200100020000100370025
:104b10000000eb00811f7800801f7800705d290085
:104b2000801f7800010920004e389000eef0070049
:104b3000e68757005e38900011c0b3000148780046
:104b400049013700315f29002e3890009df10700a0
:104b50000000e0001f003a003e389000104078004e
:104b60000004e0001b003a00a1150700e14f5000cf
:104b700003003a00a21507008084fb000100370003
:104b80008004eb009a150700e14f500002003a0044
:104b90004806200001003700883e20002a0e07004a
:104ba000891f7800881f7800801f7800a05f290087
:104bb000801f7800010920004e389000caf00700dd
:104bc000e88757005e38900011c0b30001487800b4
:104bd00025013700f16029002e38900079f1070097
:104be0000000e00040003a00800220000e0040007b
:104bf000800078003e3890008df907000004a20084
:104c00000004e00015003a004e119000de11900003
:104c10004006200001002000800f5100818f5900c4
:104c2000100032004e119000de119000001920009b
:104c300001002000800f5100818f590009003200cf
:104c40004e119000de119000803e200001002000f7
:104c5000800f5100818f59000200320010c0b30054
:104c60000201370062150700e14f50000d003a00c5
:104c70004e119000de11900040062000010020003f
:104c8000800f5100818f590006003200d2002000b1
:104c9000616129004e389000a0f0070010c0b300f9
:104ca000f20037004e109000de10900000007800f7
:104cb000260d0700de3890008048780010c0b30051
:104cc00045e9b700e00d0700801f78003062290039
:104cd000801f7800010920004e38900082f0070004
:104ce000e4875700e0003700a16229002e389000c9
:104cf00034f107000000e000d9003a000040eb006a
:104d0000104f98007800470032c0b3008000780050
:104d10003e389000bff90700404f98004e48900081
:104d2000e34f50001d003a004e08900037f1070095
:104d3000e20f500019003a004e0890001040780031
:104d400029fd07000000e000140035004e08900027
:104d50000000e8001040780023fd07000000e0009c
:104d60000e0035006e089000810220008e80400009
:104d70002ff907000004a2000004e00007003a0039
:104d80004e119000de119000000120000100200073
:104d9000800f5100818f59000200360010c0b3000f
:104da000b20037004e089000104078000efd07005a
:104db0004400dd00004478004e0890000000e80048
:104dc0001040780008fd07000040780000407400a3
:104dd000605798004e109000de10900070579800b9
:104de0006e509000e74f500004003600ee509000e7
:104df00070c7b30080cf500006003600c20020000c
:104e0000216329004e38900044f0070010c0b30021
:104e100096003700f6140700e14f50000a003a00f0
:104e2000f7140700ee509000814f500006003a0042
:104e300012012000e16329004e38900037f007008e
:104e400010c0b300890037005e089000eff0070043
:104e500001022000810f500006003e005e08900015
:104e6000eaf0070061006000004078000004e00004
:104e70000200320010c0b3007c0037000040eb009d
:104e8000004f780029003700de0890001e80fb00ec
:104e90000080400010407800d3fc07000000e000d4
:104ea00008003500de0890001e80fb000000e800ce
:104eb0000080400010407800cbfc07000000e000bc
:104ec00002003d0010c0b300680037001e4890008b
:104ed0000084fb00de0890001e80fb000080400084
:104ee00010407800c0fc07004400dd0080447800da
:104ef000de0890001e80fb000000e80000804000fb
:104f000010407800b8fc07000040780000c0740032
:104f1000804078000800470041d098001e4890006b
:104f20000040e800104f98001ecfe800de08900017
:104f30001e80fb0000804000104078000004e0006c
:104f4000d1ff3a00410620008e804000400520003d
:104f50000e0040007e529000810178001e499000b2
:104f6000800078006e5090004e0d07000004a200f3
:104f70000004e0000600320012012000f164290064
:104f80004e389000e5ef070010c0b300370037003f
:104f900062002000016629004e389000dfef070014
:104fa0000040eb00004f78001d0037001e80fb0022
:104fb0000000400065004000ce38900000804000b6
:104fc0009e80fb0081004700c1e090008180fb00d3
:104fd000c408de00814078008180fb00d266290091
:104fe000e2c07800014878001e80fb0063004000aa
:104ff00000004000ce389000008040009e80fb0002
:1050000081004700c1e090008180fb00ef806000dc
:10501000d2662900e2c07800014878001e4fe800ff
:105020007e5090009e40780080cf5000dfff390016
:105030007e5090000080fb000000400065004000b2
:10504000ce389000008040008040eb00014878009e
:105050005e38900011c0b3000148780002003700ac
:105060000040eb000100370010c0b3004f04be0049
:105070000080fa00000006000200fa00004f7800ed
:105080001e407800e14f500004003e001e80fb00ef
:10509000110020000008dd00040037001e80fb0026
:1050a0000080e800110020000008dd000080fa0008
:1050b000000006000a00fa00604798007147980057
:1050c000024f9800134f98006e409000eaff0700cf
:1050d000000f78006e409000e24f500016003e0036
:1050e000001680001e007000001688000e48900018
:1050f0000004e00004003200201680001e00700052
:1051000020168800040037009e80ea0020168000e8
:1051100000806000201688007e4090000004e000bf
:105120001a0032009e80ea000016800000806000b5
:105130000016880015003700401680001e00700021
:10514000401688000e4890000004e0000400320081
:10515000601680001e007000601688000400370092
:105160009e80ea0060168000008060006016880063
:105170007e4090000004e000040032009e80ea00bf
:105180004016800000806000401688006e4090004d
:10519000e24f50001a003e006e4090000004e00014
:1051a000070032006e409000e14f500002003a00cc
:1051b00080002000010037001000200001003700af
:1051c00040002000100798001e4890000004e000f6
:1051d00005003200410380001e00900001007000b5
:1051e000400388001a0037001e0090008080ea000b
:1051f00040038000008060004003880014003700f6
:105200006e409000e34f500002003a000080200002
:105210000100370000102000200798001e48900071
:105220000004e00005003200510380002e009000d1
:105230000100700050038800050037002e00900028
:105240008080ea00500380000080600050038800e6
:105250006e409000e14f500003003e006019800056
:105260001e007000601988000080fa00000006002f
:105270000200fa00881f7800004f78001e40780076
:10528000e24f500002003e00181680000100370077
:10529000581680001e40780077ff07000000640069
:1052a00000f0a7000000ea000000ea004f00de0066
:1052b000004078004f0478000080fa0000000600eb
:1052c0000400fa00004f780011079800103a80009f
:1052d000000178000260a100600420007105200038
:1052e0002374200080497800814978008249780041
:1052f0001e407800e34f50000c003a001e00900062
:10530000004078007f4060000080fb007f0060006c
:105310004800dd0022368000f10f2e008100610080
:1053200001007000203688000a0037001e0090003f
:10533000004078007f4060000080fb007f0060003c
:105340003236800001fe2f008100610001007000f4
:1053500030368800103a8000000178000260a0001a
:10536000600420007105200023742000804978002b
:1053700081497800824978000080fa000000060028
:105380000200fa00004f78001e407800e34f500002
:1053900004003a009420a9004221ef008420a900d3
:1053a0000300370094a0a9004621ef0084a0a900c3
:1053b0000080fa00000006000200fa00004f7800aa
:1053c000103a8000000178000260a1006004200013
:1053d00071052000237420008049780081497800fd
:1053e000824978001e407800e34f500006003a00e2
:1053f0007134800000fe2f00008060005000b30078
:10540000703488000600370071348000f00f2e00e1
:10541000808060000060200001007000703488000f
:10542000103a8000000178000260a00060042000b3
:10543000710520002374200080497800814978009c
:10544000824978001e407800e34f50000a003a007d
:1054500030082000100a880021058000f0f82f0095
:10546000808060000003200001007000200588009b
:105470009420a8000900370030082000300a880076
:1054800031058000f0f82f008080600000032000cc
:10549000010070003005880094a0a8000080fa0088
:1054a000000006000e00fa00004f98005107980017
:1054b00062079800110280003107980011028000f5
:1054c000000e200001007000100288000e489000bd
:1054d000e24f50001a003a00a25b8000b35b8000ec
:1054e000028fbe000308800023079800200480007c
:1054f000680060000000e0000600320000002000ac
:10550000110020001e0f40005e9748000108800037
:10551000210798002e0090008000eb003e01400023
:10552000ae8148000200be005e0190000089be000e
:105530006e0090008040eb000148780011003700b9
:105540000e4890000080fb0063005000c1b62000b0
:105550004200dd00008040001000be005e019000af
:105560000089be000e4890000080fb00e300500060
:10557000c0b7200000804000904078006e0090008e
:1055800001487800be019000130288000080fa00f4
:10559000000006001600fa00200f98000040eb0003
:1055a0001047980013e1a9008421ef008a21ef0041
:1055b00030c0b300004f7800900037001e80fb0021
:1055c0007a00b90000007800ae089000008040002a
:1055d000100798001e00900010007800e40f5000a3
:1055e00084003a0010c0b300104798001e009000dd
:1055f000a0009000100090006c014700510e0700c1
:105600001221ef006e0090000040780063406000bf
:105610000080fb00630060004400dd009208800011
:10562000f1fc2f00810061000100700090088800eb
:105630007e009000700888000a21ef007e00900034
